:020000040800F2
:1000000000100020D51800086518000867180008BF
:1000100000000000000000000000000000000000E0
:100020000000000000000000000000006918000847
:1000300000000000000000006B1800086D180008A8
:1000400025190008000000002519000825190008DE
:100050002519000825190008251900082519000888
:1000600000000000251900082519000825190008BE
:1000700025190008251900082519000800000000AE
:1000800025190008000000000000000025190008E4
:10009000000000002519000825190008251900088E
:1000A00000000000251900080000000025190008C4
:1000B0000000000000000000000000000000000040
:1000C00010B5064C2378002B07D1054B002B02D02E
:1000D000044800E000BF0123237010BD040000208D
:1000E0000000000094190008044B10B5002B03D049
:1000F0000349044800E000BF10BDC04600000000F6
:10010000080000209419000802B47146490849000B
:10011000095C49008E4402BC7047C0460022430877
:100120008B4274D303098B425FD3030A8B4244D3BF
:10013000030B8B4228D3030C8B420DD3FF22090201
:1001400012BA030C8B4202D31212090265D0030BC0
:100150008B4219D300E0090AC30B8B4201D3CB03B6
:10016000C01A5241830B8B4201D38B03C01A5241F8
:10017000430B8B4201D34B03C01A5241030B8B42FA
:1001800001D30B03C01A5241C30A8B4201D3CB02E5
:10019000C01A5241830A8B4201D38B02C01A5241CA
:1001A000430A8B4201D34B02C01A5241030A8B42CD
:1001B00001D30B02C01A5241CDD2C3098B4201D3E5
:1001C000CB01C01A524183098B4201D38B01C01A63
:1001D000524143098B4201D34B01C01A52410309DA
:1001E0008B4201D30B01C01A5241C3088B4201D389
:1001F000CB00C01A524183088B4201D38B00C01A36
:10020000524143088B4201D34B00C01A5241411A5C
:1002100000D20146524110467047FFE701B5002069
:1002200000F006F802BDC0460029F7D076E7704717
:100230007047C04610B5040000F0E6FBFA218900C3
:10024000FFF76CFF00F066F8012000222100404219
:1002500000F030F8002010BD1023064A10B51168D8
:1002600000200B431360FFF7E5FF01F095FA002033
:1002700010BDC04600200240024A136801331360DB
:100280007047C04638000020014B18687047C046D0
:100290003800002037B50190FFF7F6FF019C0500FC
:1002A000631C5A1E9341E418FFF7EEFF401BA04267
:1002B000FAD337BD70B58901002814DA0F23C0B214
:1002C0000340083B114A9B089B009B1803221040E7
:1002D0009040FC321500114085408140DC69AC4300
:1002E0002143D96170BD032583082840A840FC350F
:1002F0002E00074A9B009B18C0228640294081405F
:1003000092009C58B44321439950EBE700ED00E084
:1003100000E100E0094A431E012093420DD8C021AC
:10032000074A08485360036A09061B021B0A0B436D
:10033000036200200723906013607047FFFFFF00F7
:1003400010E000E000ED00E0F0B50B6887B002932C
:1003500000230191029ADA4001D107B0F0BD0122D9
:100360009A4003920399029A0A40009200D18CE0CD
:10037000019A1021526816008E43022E0ED10725D5
:100380001D40AD000139A940DC08A4000419276A0A
:100390008F4301990969A9400F43276203245F0035
:1003A000BC40E4430568013E2540AC4603251540AA
:1003B000BD4061460D430560012E0FD80199866846
:1003C000CD682640BD4035438560466803991509D0
:1003D0008E4301210D409D4035434560C56801991C
:1003E0002C408D688021BD4049052C43C4600A42E1
:1003F0004BD00121264C0326A5691E400D43A56163
:10040000A4699D080C400594059C0F242149AD006A
:10041000B6006D18B4409021AF68C905A743002409
:1004200088420CD01C490134884208D01B49013451
:10043000884204D01A490334884200D1023CB440B7
:1004400000993C430E00AC60164CCD4327683E43F8
:10045000D10301D43E002E4026606768009E3E43D3
:10046000910301D43E002E406660A768009E3E4383
:10047000D10201D43E002E40A660E668009F3743BB
:10048000920201D42E403700E760013362E7C04694
:10049000001002400000014000040048000800482D
:1004A000000C004800040140002A01D0816170471F
:1004B0008162FCE7F0B5036885B00500DB072FD447
:1004C0002B689B0700D581E02B681B0700D5BCE09B
:1004D0002B685B0700D5DFE02B68DB061AD56A695D
:1004E000B54C0423012A00D04BE1616B02260B437B
:1004F0006363636B1A436263FFF7C6FE0700636BB7
:10050000334200D136E1F821626BAB698A43DB00EC
:1005100013436363296A002900D059E1002013E0E6
:100520000C21A54C62680A40042A06D063680B407F
:10053000082B0BD16368DB0308D523689B03BFD569
:100540006B68002BBCD1012005B0F0BD6B68012B9E
:1005500013D1802322685B0213432360FFF794FECC
:1005600080260700B60223683342A9D1FFF78CFE2C
:10057000C01B6428F7D90320E6E7002B16D12368B7
:100580008E4A80261340236023688D4AB6021340AA
:100590002360FFF779FE07002368334200D18FE71D
:1005A000FFF772FEC01B6428F6D9E4E7052B05D1DE
:1005B00080232268DB0213432360CAE723687F4A53
:1005C0001340236023687E4A1340C6E70C227A4C0E
:1005D0006368134206D063681340082B10D1636828
:1005E000DB030DD423689B0702D5EB68012BAAD14E
:1005F000F82122682B698A43DB001343236063E7F9
:10060000EA680123002A0FD02268022613432360E0
:10061000FFF73AFE070023683342E9D1FFF734FEC3
:10062000C01B0228F7D9A6E7226802269A43226057
:10063000FFF72AFE07002368334200D144E7FFF7A3
:1006400023FEC01B0228F6D995E7EA6901235A4C1C
:10065000002A10D0626A022613436362FFF714FE79
:100660000700636A334200D032E7FFF70DFEC01B7C
:100670000228F6D97FE7626A02269A436262FFF790
:1006800003FE0700636A334200D121E7FFF7FCFD58
:10069000C01B0228F6D96EE780220021464C520585
:1006A000E3690091134208D1E3691343E361E3690D
:1006B00013400393039B012300938027414E7F0047
:1006C00033683B4206D0AB68012B13D1226A134337
:1006D000236230E033683B433360FFF7D5FD019080
:1006E00033683B42EFD1FFF7CFFD019BC01A64286E
:1006F000F6D940E70122002B14D1236A0227934345
:100700002362236A033293432362FFF7BDFD060091
:10071000236A3B4225D0FFF7B7FD2B4B801B984245
:10072000F6D928E7052B0BD1216A013B0B43236245
:10073000236A1A432262FFF7A7FD022706000DE095
:10074000236A934304222362236A9343C0E7FFF79B
:100750009BFD1D4B801B984200D90CE7236A3B424E
:10076000F5D0009B012B00D0B6E6E369174A134091
:10077000E361B1E6FFF788FDC01B022800D8BEE6A2
:10078000F9E6053203D1626B9A436263BBE6626BA2
:100790000226134301226363636B93436363FFF792
:1007A00073FD0700636B334200D1B3E6FFF76CFDC6
:1007B000C01B0228F6D9DEE600100240FFFFFEFF54
:1007C000FFFFFBFF0070004088130000FFFFFFEFFA
:1007D0000C22264C012063681340082B00D1B3E69D
:1007E0002368234A1340236002292FD1FFF74CFDD1
:1007F00080260700B6042368334221D10F22E36A22
:100800009343EA6A1343E362696AAB6A62680B4323
:10081000184980250A4013436360802322685B04E3
:1008200013432360FFF730FD0600AD0423682B421D
:1008300000D073E6FFF728FD801B0228F6D99AE660
:10084000FFF722FDC01B0228D5D994E6FFF71CFD57
:1008500080250600AD0423682B4200D15EE6FFF739
:1008600013FD801B0228F6D985E6C0460010024021
:10087000FFFFFFFEFFFFC2FF70B5144C88B01022CF
:100880002100684601F074F8210004AD10221031F7
:10089000280001F06DF80C220D4E73681A40082AEA
:1008A00011D10F206A46990C0140545CF26A024053
:1008B000A95CDB0305D50748FFF730FC604308B0AF
:1008C00070BD0548FAE70348F9E7C046AC190008CF
:1008D0000010024000127A0000093D00F7B5012225
:1008E000434C060023680F0013408B421CD3326830
:1008F000930723D4D30729D4012322681A409742AF
:1009000067D333683B4C5B076AD4FFF7B5FF636876
:10091000394A1B061B0FD35CD840384B18600020A7
:10092000FFF788FC002008E0236893430B43236013
:10093000236813409942DAD00120FEBDF0202D49F2
:100940004B688343B06803434B60D3E7294D72681B
:100950002B68012A1AD19B03EED503216B688B43C8
:1009600013436B60FFF790FC73680190012B15D166
:100970000C226B681340042BBED0FFF785FC019B53
:10098000C01A1F4B9842F3D90320D6E7022A02D19E
:100990009B01E2D4D0E79B07DFD4CDE7022B12D036
:1009A0000C226B681342A7D0FFF76EFC019BC01AA4
:1009B000134B9842F4D9E7E7FFF766FC019BC01A96
:1009C0000F4B9842E0D80C226B681340082BF3D1F0
:1009D00092E722689A43226022681A42ACD190E7DB
:1009E0006368084A1340F268134363608DE7C046AA
:1009F0000020024000100240CC1900080000002036
:100A000088130000FFF8FFFF014B18687047C046CD
:100A100000000020F0B5036885B00500DB0328D591
:100A200080220021374C5205E3690091134208D11E
:100A3000E3691343E361E36913400393039B0123D9
:100A400000938027304E7F0033683B4226D0C0227F
:100A5000236A920013402D4E32D1236A1E406B68E8
:100A60001E43009B2662012B03D1E369284A1340F1
:100A7000E3612A68D30706D5032022490B6B834321
:100A8000A86803430B630020930617D510211D4A65
:100A9000136B8B43E9680B4313630FE033683B43ED
:100AA0003360FFF7F1FB019033683B42CFD1FFF792
:100AB000EBFB019BC01A6428F6D9032005B0F0BDFA
:100AC00069680A409342C8D08023226A206A1100D4
:100AD0005B0203432362236A0E48314003402362D2
:100AE0002162D307B9D5FFF7CFFB07000222236AA3
:100AF0001342B2D1FFF7C8FB074BC01B9842F5D990
:100B0000DBE7C0460010024000700040FFFCFFFF22
:100B1000FFFFFFEFFFFFFEFF88130000A021026828
:100B2000F8B5D36804008B43D360FFF7ADFBFA2719
:100B300006002025BF002368DB682B4201D000207F
:100B4000F8BDFFF7A1FB801BB842F4D90320F7E7FB
:100B5000F8B5402403680500DA68224201D000207D
:100B6000F8BD01225242DA60FFF78EFBFA27060039
:100B7000BF002B68DB682342F1D1FFF785FB801BA8
:100B8000B842F6D90320EBE770B504000125002830
:100B900018D0437FDBB2002B02D1037700F014FEA4
:100BA0000223CA226377236820005A62773A5A6286
:100BB000FFF7CEFF2368051E06D0FF225A620423EA
:100BC00001256377280070BD9A68174920690A409B
:100BD0009A60626899680243606902430A439A60B6
:100BE000E2681A61A268196912040A4380211A6135
:100BF000DA688A43DA609B689B0606D42000FFF718
:100C00008DFF002801D02368D7E7236807491A6CB5
:100C10000A401A641A6CA1690A431A64FF225A62D4
:100C200001236377CEE7C046BFFF8FFFFFFFFBFFC7
:100C30000023092803D81B011843C0B270470A38A3
:100C40000133C0B2F5E700000223F7B50D00017FC4
:100C500004001F00012932D0012143770368017786
:100C60009B683F3128786E78AF780B40002A28D1F6
:100C7000002B00D1EB70FFF7DBFF01903000FFF796
:100C8000D7FF06003800FFF7D3FFEF78019B3F0442
:100C90000743180407433602CA22236820005A6219
:100CA000773A5A62FFF754FF3E432368071E12D07B
:100CB000FF225A6204236377002323770127380039
:100CC000FEBD002B00D1EB70000436020643374313
:100CD000EE783604E0E71448144906401E609A682E
:100CE00028690A409A60EA68996802430A438021A9
:100CF0009A60DA688A43DA609B689B060BD420000E
:100D0000FFF70CFF002806D0FF2223685A62042355
:100D100027776377D2E7FF2223685A62012363773C
:100D200000232377CBE7C0467F7F7F00FFFFFBFFD9
:100D30000223F7B50D00017F04001E00012931D008
:100D40000121437701776B78E878AF782E78002A15
:100D500048D11032134202D093430A336B70FFF72D
:100D600067FF01906878FFF763FF05003800FFF721
:100D70005FFF019B760330431E0406432D0235437B
:100D8000CA22236820005A62773A5A62FFF7E0FECF
:100D90002368061E08D0FF225A62042363770023CB
:100DA000237701263000FEBD8021124F3D405D605B
:100DB000DA688A43DA609B689B060BD42000FFF751
:100DC000ADFE002806D0FF2223685A62042326774E
:100DD0006377E6E7FF2223685A62012363770023E3
:100DE0002377DFE700041B0203431F4375033D43E2
:100DF000C6E7C0463FFFFF000A23020953430F2204
:100E000010401818C0B2704770B50C007F250168FB
:100E10003F208B6A63600B695B045B0CA3600B680B
:100E20000D490B401E0A190C2E401D40402308405E
:100E3000194020706670A570E170002A0AD1FFF792
:100E4000DBFF20703000FFF7D7FF60702800FFF74E
:100E5000D3FFA070002070BD7F7F7F0070B53F255D
:100E60000C0003680D495B680B40180CDE041D4044
:100E70001B04F60E5B0FE0706670A5702370002AED
:100E80000AD1FFF7B9FFE0703000FFF7B5FF6070DF
:100E90002800FFF7B1FFA070002070BD3FFFFF00EA
:100EA0000122036A70B593430362036A446885694B
:100EB000723295430A681543022293438A681343AA
:100EC000114A904205D0114EB04202D0104EB042AD
:100ED00013D10826B343CE6833430426B34390426C
:100EE00005D00A4A904202D0094A904205D1094AE7
:100EF0008E6922404C69344314434A6844608561DA
:100F00004263036270BDC046002C014000440140B2
:100F100000480140FFFCFFFF70B57325036A164AC5
:100F200013400362036A4268C469AC430D682C43F2
:100F3000124D2B408D682D022B43114DA8420ED12E
:100F4000104D1D40CB681B022B430F4D2B400F4D06
:100F50004E6915408A69324312012A4305E00C4D5F
:100F6000A842F4D00B4DA842F1D042604A68C46157
:100F7000C263036270BDC046FFFEFFFFFFFDFFFFBF
:100F8000002C0140FFF7FFFFFFFBFFFFFFCFFFFF3C
:100F90000044014000480140036A124A30B5134042
:100FA0000362026A104C4368C56925400C6824023C
:100FB00025430E4C22408C68240322430C4CA04253
:100FC00005D00C4CA04202D00B4CA04204D10B4CDB
:100FD00023404C69A401234343604B68C56103640B
:100FE000026230BDFFEFFFFFFF8CFFFFFFDFFFFF5F
:100FF000002C01400044014000480140FFBFFFFFBA
:10100000194A10B50368904202D0184CA04208D18A
:101010007024A3434C68234390420BD0134CA0424E
:1010200008D0134CA04205D0124CA04202D0124C62
:10103000A04203D1114C2340CC6823438024A34316
:101040004C69234303608B68C3620B6883629042E0
:1010500005D0084B984202D0074B984201D10B694A
:1010600003630123436110BD002C014000040040D4
:10107000002000400044014000480140FFFCFFFF09
:1010800070B504000120002C14D025003D352B78CC
:10109000DBB2002B05D122003C321370200000F09F
:1010A000A3FB022320682B70211DFFF7A9FF01235A
:1010B00000202B7070BD00001022036A70B59343AE
:1010C0000362026A154D436884692C400D682D0245
:1010D0002C432025AA438D682D012A43104DA84298
:1010E0000FD18025AA431500CA6812012A43402562
:1010F000AA430C4D4E691D408B6933439B002B4323
:1011000005E0094DA842F4D0084DA842F1D0436053
:101110004B6884618363026270BDC046FF8CFFFF31
:10112000002C0140FFF3FFFF004401400048014054
:10113000F8B5060002233C360D0031780400180093
:10114000012925D0270001213D3731703B700C2A41
:101150001AD81000FEF7D8FF071818181D1818180D
:101160002F181818410029002068FFF799FE08225F
:10117000236899690A4304219A619A698A439A61AA
:101180009A6929690A439A61012300203B703070F3
:10119000F8BD29002068FFF78FFF80222368120125
:1011A00099690A439A619A6915490A409A612A69BC
:1011B00099691202E6E729002068FFF7ADFE0822D0
:1011C0002368D9690A430421DA61DA698A43DA615A
:1011D000DA6929690A43DA61D6E729002068FFF74E
:1011E000DBFE802223681201D9690A43DA61DA69D9
:1011F00003490A40DA612A69D9691202EAE7C0465E
:10120000FFFBFFFF10B501248C408A40036AA34313
:101210000362036A1A43026210BD000010B50400A5
:1012200001220068FFF7EEFF23680A4A934205D0C7
:10123000094A934202D0094A934204D18022596C50
:1012400012020A435A640122196800200A431A60F4
:1012500010BDC046002C0140004401400048014040
:1012600010B5040000220068FFF7CCFF2368124A83
:101270001249934205D0124A934202D0114A934236
:101280000AD11A6A0A4207D1186A0F4A104203D1DA
:101290005A6C0E4802405A641A6A0A4207D1196A07
:1012A000094A114203D101211A688A431A600123B5
:1012B0003D340020237010BD002C014011110000AE
:1012C000004401400048014044040000FF7FFFFF4C
:1012D00030B504003C34227803000220012A17D0E4
:1012E0001D001B683D3528705A686E3082435A6075
:1012F0005A6808684968024380205A609A688243A5
:101300009A609A6800200A439A6001232B7020702B
:1013100030BD000030B504003C34237802000220C8
:10132000012B24D015003D352870114BC868126878
:101330000340886803430F480340486803430E484E
:101340000340086803430D480340086903430C4801
:1013500003404869896903430A4803400A480B432C
:1013600003400B435364002001232B70207030BDD9
:10137000FFFCFFFFFFFBFFFFFFF7FFFFFFEFFFFF9C
:10138000FFDFFFFFFFBFFFFFFF7FFFFF30B5102430
:1013900095B03022002108A800F0F3FA22000021C5
:1013A000684600F0EEFA2200002104A8802400F034
:1013B000E8FA02250123640208A80893099310950E
:1013C0001194FFF777F800210723684600930291F4
:1013D00003910195FFF782FAC02304A89B000494AF
:1013E0000593FFF717FB15B030BD0000F0B5A5B0B1
:1013F0001DAEFEF731FFFFF7C9FF300014220021B8
:1014000000F0BFFA8020B34BC003596900250143A7
:10141000596180215A698902024090201292129AE1
:101420005A69C0050A435A615B6900220B40139355
:101430001821139BFFF738F890200124182331005E
:10144000C0057460B560F5601D93FEF77DFF300048
:101450002900142200F095FA9F4AA04B1000136057
:101460007F2393609E4B5560D360156155619561F4
:101470001695FFF789FB0C2316AF31002A0096481A
:1014800033707370B370F5603561FFF7DDFB3900C1
:101490002A0091483C707C70BC70FD70FFF748FCDE
:1014A0000822290014A800F06CFA1C222900380038
:1014B00000F067FA30001C22290000F062FA894C23
:1014C000894B200023606560A560E560256165614A
:1014D000A561FFF7D5FD14A9200014951595FFF718
:1014E000F7FE602304223900200016937D60BD6062
:1014F000FD603D617D61BD61FFF71AFE8023310013
:101500009B01200073617560B560F5603561B56160
:101510001D95FFF7FFFE200000F07CF96A466E4B38
:10152000FF27103343CB43C210921B681193130063
:10153000119A1A60684B186859689A68DB6800F05D
:1015400003F9C8230E93C43B0C9323006A460D97FE
:10155000103343CB43C2109A43CB43C243CB43C265
:1015600043CB43C26168A268E368206800F0C4F816
:10157000FA208000FEF78EFE04230C9323006A46B7
:101580000E950D97103343CB43C2109A43CB43C201
:1015900043CB43C243CB43C2E36820686168A2687F
:1015A00000F0AAF8FA208000FEF774FE04231093DE
:1015B000ABB20E93109B6A460C9323000D97103329
:1015C00043CB43C243CB43C243CB43C243CB43C2CF
:1015D000E36820686168A26800F08EF8FA20800055
:1015E000FEF758FE802301355B009D42E0D10023C9
:1015F000FA2510936D0000223C493748FFF704FCA0
:101600003B4E002231003448FFF728FC3678012E8B
:10161000F1D1364B5B7833423CD064230D950E9369
:10162000603B0C9323006A46103383CB83C283CB89
:1016300083C283CB83C283CB83C2A268E368206862
:10164000616800F059F8FA208000FEF723FE274A6F
:10165000284B12889A4221D1109B002BCBD16433A6
:101660000E93603B0C9323006A460D95103383CB99
:1016700083C283CB83C283CB83C283CB83C22068E4
:101680006168A268E36800F037F80A20FEF702FEFE
:101690001096B0E70E960D950423C2E704230C9331
:1016A00023006A460E950D95103343CB43C243CBBE
:1016B00043C243CB43C243CB43C2E3682068616863
:1016C000A26800F019F80A20FEF7E4FD0023109349
:1016D00091E7C046001002403C0000200028004076
:1016E000CF0700005C000020002C014024000020F7
:1016F000200000200C1F000084B030B589B00F938B
:1017000036236B44DD8F0C901EAB0D910CA81C99F9
:101710001C880E92FFF7A4FD0CA80F95FFF7B0FCF4
:101720006023019300231C9A01A90CA8039305933D
:101730000294FFF7FDFC1C990CA8FFF76FFD09B0A0
:1017400030BC08BC04B0184770B586B001AC142298
:101750000021200000F015F90D2300250D4E237007
:10176000023B63702A00213321003000A3700095F2
:10177000FFF76AFA6A4601231370DB1853701033BF
:1017800093700133D37069462A003000FFF7D0FA16
:1017900006B070BD3C00002001200A4B82B0996960
:1017A0000143996180219A69490502400092009A9B
:1017B000DA690A43DA61DB690B400193019B02B0ED
:1017C0007047C04600100240054B02689A4205D19E
:1017D0008023044A1B02116A0B4313627047C04600
:1017E0000028004000100240084B026882B09A4274
:1017F00009D18020064A00019169014391619369F2
:1018000003400193019B02B07047C046002C014089
:101810000010024010B5040086B01422002101A877
:1018200000F0AFF80D4B22689A4215D180200C4A87
:101830008002516901435161536901A9034000933A
:10184000009B802390209B000193FF3BFF3BC00542
:1018500002930593FEF778FD06B010BD002C014001
:10186000001002407047FEE77047704710B5FEF762
:1018700003FD10BD0121114B11481A680A431A607B
:101880005A6802405A601A680E4802401A601A6884
:101890000D4802401A605A680C4802400F205A60F6
:1018A000DA6A8243DA621A6B094802401A635A6B99
:1018B0008A435A6300229A607047C0460010024073
:1018C0000CB8FF08FFFFF6FEFFFFFBFFFFFFC0FFA6
:1018D000ECFEFFFF0D4885460D480E490E4A0023D9
:1018E00002E0D458C4500433C4188C42F9D30B4AD4
:1018F0000B4C002301E013600432A242FBD3FFF73C
:10190000B9FF00F011F8FFF771FDFEE700100020AD
:101910000000002004000020E4190008040000205A
:101920009C000020FEE7000070B500260C4D0D4C19
:10193000641BA410A64209D1002600F02BF80A4D22
:101940000A4C641BA410A64205D170BDB300EB582D
:1019500098470136EEE7B300EB5898470136F2E7B7
:10196000DC190008DC190008DC190008E01900087F
:10197000002310B59A4200D110BDCC5CC454013391
:10198000F8E703008218934200D1704719700133C1
:10199000F9E70000F8B5C046F8BC08BC9E467047A1
:0C19A000F8B5C046F8BC08BC9E46704775
:1019AC0002030405060708090A0B0C0D0E0F101094
:1019BC000102030405060708090A0B0C0D0E0F1093
:1019CC0000000000000000000102030406070809E3
:0419DC00E900000816
:0419E000C10000083A
:0419E40000127A0073
:04000005080018D502
:00000001FF
